{
    "_format": "hh-sol-artifact-1",
    "contractName": "Todos",
    "sourceName": "contracts/Todos.sol",
    "abi": [
        {
            "inputs": [],
            "stateMutability": "nonpayable",
            "type": "constructor"
        },
        {
            "anonymous": false,
            "inputs": [
                {
                    "indexed": false,
                    "internalType": "uint256",
                    "name": "",
                    "type": "uint256"
                },
                {
                    "indexed": false,
                    "internalType": "uint256[]",
                    "name": "",
                    "type": "uint256[]"
                }
            ],
            "name": "TodoAdded",
            "type": "event"
        },
        {
            "inputs": [
                {
                    "internalType": "string",
                    "name": "description",
                    "type": "string"
                }
            ],
            "name": "addTodo",
            "outputs": [],
            "stateMutability": "payable",
            "type": "function"
        },
        {
            "inputs": [],
            "name": "getTodos",
            "outputs": [
                {
                    "components": [
                        {
                            "internalType": "uint256",
                            "name": "id",
                            "type": "uint256"
                        },
                        {
                            "internalType": "string",
                            "name": "description",
                            "type": "string"
                        },
                        {
                            "internalType": "bool",
                            "name": "finished",
                            "type": "bool"
                        },
                        {
                            "internalType": "bool",
                            "name": "created",
                            "type": "bool"
                        }
                    ],
                    "internalType": "struct Todos.Todo[]",
                    "name": "",
                    "type": "tuple[]"
                }
            ],
            "stateMutability": "view",
            "type": "function"
        },
        {
            "inputs": [
                {
                    "internalType": "uint256",
                    "name": "newId",
                    "type": "uint256"
                }
            ],
            "name": "getTodosById",
            "outputs": [
                {
                    "components": [
                        {
                            "internalType": "uint256",
                            "name": "id",
                            "type": "uint256"
                        },
                        {
                            "internalType": "string",
                            "name": "description",
                            "type": "string"
                        },
                        {
                            "internalType": "bool",
                            "name": "finished",
                            "type": "bool"
                        },
                        {
                            "internalType": "bool",
                            "name": "created",
                            "type": "bool"
                        }
                    ],
                    "internalType": "struct Todos.Todo",
                    "name": "",
                    "type": "tuple"
                }
            ],
            "stateMutability": "view",
            "type": "function"
        },
        {
            "inputs": [
                {
                    "internalType": "address",
                    "name": "",
                    "type": "address"
                },
                {
                    "internalType": "uint256",
                    "name": "",
                    "type": "uint256"
                }
            ],
            "name": "todos",
            "outputs": [
                {
                    "internalType": "uint256",
                    "name": "id",
                    "type": "uint256"
                },
                {
                    "internalType": "string",
                    "name": "description",
                    "type": "string"
                },
                {
                    "internalType": "bool",
                    "name": "finished",
                    "type": "bool"
                },
                {
                    "internalType": "bool",
                    "name": "created",
                    "type": "bool"
                }
            ],
            "stateMutability": "view",
            "type": "function"
        },
        {
            "inputs": [
                {
                    "internalType": "address",
                    "name": "",
                    "type": "address"
                },
                {
                    "internalType": "uint256",
                    "name": "",
                    "type": "uint256"
                }
            ],
            "name": "todosByOwner",
            "outputs": [
                {
                    "internalType": "uint256",
                    "name": "id",
                    "type": "uint256"
                },
                {
                    "internalType": "string",
                    "name": "description",
                    "type": "string"
                },
                {
                    "internalType": "bool",
                    "name": "finished",
                    "type": "bool"
                },
                {
                    "internalType": "bool",
                    "name": "created",
                    "type": "bool"
                }
            ],
            "stateMutability": "view",
            "type": "function"
        }
    ],
    "bytecode": "0x608060405234801561001057600080fd5b5033600160006101000a81548173ffffffffffffffffffffffffffffffffffffffff021916908373ffffffffffffffffffffffffffffffffffffffff16021790555060008081905550610f38806100686000396000f3fe60806040526004361061004a5760003560e01c806303db80c81461004f578063428c18891461008c57806395ffebf5146100cc578063c33926cb146100e8578063f5ab51ae14610113575b600080fd5b34801561005b57600080fd5b5061007660048036038101906100719190610981565b610153565b6040516100839190610bc9565b60405180910390f35b34801561009857600080fd5b506100b360048036038101906100ae9190610904565b61028f565b6040516100c39493929190610beb565b60405180910390f35b6100e660048036038101906100e19190610940565b61036e565b005b3480156100f457600080fd5b506100fd610546565b60405161010a9190610ba7565b60405180910390f35b34801561011f57600080fd5b5061013a60048036038101906101359190610904565b6106b4565b60405161014a9493929190610beb565b60405180910390f35b61015b6107a3565b600260003373ffffffffffffffffffffffffffffffffffffffff1673ffffffffffffffffffffffffffffffffffffffff1681526020019081526020016000206000838152602001908152602001600020604051806080016040529081600082015481526020016001820180546101d090610dd3565b80601f01602080910402602001604051908101604052809291908181526020018280546101fc90610dd3565b80156102495780601f1061021e57610100808354040283529160200191610249565b820191906000526020600020905b81548152906001019060200180831161022c57829003601f168201915b505050505081526020016002820160009054906101000a900460ff161515151581526020016002820160019054906101000a900460ff1615151515815250509050919050565b6002602052816000526040600020602052806000526040600020600091509150508060000154908060010180546102c590610dd3565b80601f01602080910402602001604051908101604052809291908181526020018280546102f190610dd3565b801561033e5780601f106103135761010080835404028352916020019161033e565b820191906000526020600020905b81548152906001019060200180831161032157829003601f168201915b5050505050908060020160009054906101000a900460ff16908060020160019054906101000a900460ff16905084565b60006040518060800160405280600054815260200183815260200160001515815260200160011515815250905080600260003373ffffffffffffffffffffffffffffffffffffffff1673ffffffffffffffffffffffffffffffffffffffff1681526020019081526020016000206000805481526020019081526020016000206000820151816000015560208201518160010190805190602001906104139291906107cf565b5060408201518160020160006101000a81548160ff02191690831515021790555060608201518160020160016101000a81548160ff021916908315150217905550905050600360003373ffffffffffffffffffffffffffffffffffffffff1673ffffffffffffffffffffffffffffffffffffffff1681526020019081526020016000208190806001815401808255809150506001900390600052602060002090600302016000909190919091506000820151816000015560208201518160010190805190602001906104e69291906107cf565b5060408201518160020160006101000a81548160ff02191690831515021790555060608201518160020160016101000a81548160ff0219169083151502179055505050600160008082825461053b9190610cf3565b925050819055505050565b6060600360003373ffffffffffffffffffffffffffffffffffffffff1673ffffffffffffffffffffffffffffffffffffffff168152602001908152602001600020805480602002602001604051908101604052809291908181526020016000905b828210156106ab5783829060005260206000209060030201604051806080016040529081600082015481526020016001820180546105e490610dd3565b80601f016020809104026020016040519081016040528092919081815260200182805461061090610dd3565b801561065d5780601f106106325761010080835404028352916020019161065d565b820191906000526020600020905b81548152906001019060200180831161064057829003601f168201915b505050505081526020016002820160009054906101000a900460ff161515151581526020016002820160019054906101000a900460ff161515151581525050815260200190600101906105a7565b50505050905090565b600360205281600052604060002081815481106106d057600080fd5b9060005260206000209060030201600091509150508060000154908060010180546106fa90610dd3565b80601f016020809104026020016040519081016040528092919081815260200182805461072690610dd3565b80156107735780601f1061074857610100808354040283529160200191610773565b820191906000526020600020905b81548152906001019060200180831161075657829003601f168201915b5050505050908060020160009054906101000a900460ff16908060020160019054906101000a900460ff16905084565b604051806080016040528060008152602001606081526020016000151581526020016000151581525090565b8280546107db90610dd3565b90600052602060002090601f0160209004810192826107fd5760008555610844565b82601f1061081657805160ff1916838001178555610844565b82800160010185558215610844579182015b82811115610843578251825591602001919060010190610828565b5b5090506108519190610855565b5090565b5b8082111561086e576000816000905550600101610856565b5090565b600061088561088084610c5c565b610c37565b90508281526020810184848401111561089d57600080fd5b6108a8848285610d91565b509392505050565b6000813590506108bf81610ed4565b92915050565b600082601f8301126108d657600080fd5b81356108e6848260208601610872565b91505092915050565b6000813590506108fe81610eeb565b92915050565b6000806040838503121561091757600080fd5b6000610925858286016108b0565b9250506020610936858286016108ef565b9150509250929050565b60006020828403121561095257600080fd5b600082013567ffffffffffffffff81111561096c57600080fd5b610978848285016108c5565b91505092915050565b60006020828403121561099357600080fd5b60006109a1848285016108ef565b91505092915050565b60006109b68383610ac3565b905092915050565b60006109c982610c9d565b6109d38185610cc0565b9350836020820285016109e585610c8d565b8060005b85811015610a215784840389528151610a0285826109aa565b9450610a0d83610cb3565b925060208a019950506001810190506109e9565b50829750879550505050505092915050565b610a3c81610d5b565b82525050565b610a4b81610d5b565b82525050565b6000610a5c82610ca8565b610a668185610cd1565b9350610a76818560208601610da0565b610a7f81610ec3565b840191505092915050565b6000610a9582610ca8565b610a9f8185610ce2565b9350610aaf818560208601610da0565b610ab881610ec3565b840191505092915050565b6000608083016000830151610adb6000860182610b89565b5060208301518482036020860152610af38282610a51565b9150506040830151610b086040860182610a33565b506060830151610b1b6060860182610a33565b508091505092915050565b6000608083016000830151610b3e6000860182610b89565b5060208301518482036020860152610b568282610a51565b9150506040830151610b6b6040860182610a33565b506060830151610b7e6060860182610a33565b508091505092915050565b610b9281610d87565b82525050565b610ba181610d87565b82525050565b60006020820190508181036000830152610bc181846109be565b905092915050565b60006020820190508181036000830152610be38184610b26565b905092915050565b6000608082019050610c006000830187610b98565b8181036020830152610c128186610a8a565b9050610c216040830185610a42565b610c2e6060830184610a42565b95945050505050565b6000610c41610c52565b9050610c4d8282610e05565b919050565b6000604051905090565b600067ffffffffffffffff821115610c7757610c76610e94565b5b610c8082610ec3565b9050602081019050919050565b6000819050602082019050919050565b600081519050919050565b600081519050919050565b6000602082019050919050565b600082825260208201905092915050565b600082825260208201905092915050565b600082825260208201905092915050565b6000610cfe82610d87565b9150610d0983610d87565b9250827fffffffffffffffffffffffffffffffffffffffffffffffffffffffffffffffff03821115610d3e57610d3d610e36565b5b828201905092915050565b6000610d5482610d67565b9050919050565b60008115159050919050565b600073ffffffffffffffffffffffffffffffffffffffff82169050919050565b6000819050919050565b82818337600083830152505050565b60005b83811015610dbe578082015181840152602081019050610da3565b83811115610dcd576000848401525b50505050565b60006002820490506001821680610deb57607f821691505b60208210811415610dff57610dfe610e65565b5b50919050565b610e0e82610ec3565b810181811067ffffffffffffffff82111715610e2d57610e2c610e94565b5b80604052505050565b7f4e487b7100000000000000000000000000000000000000000000000000000000600052601160045260246000fd5b7f4e487b7100000000000000000000000000000000000000000000000000000000600052602260045260246000fd5b7f4e487b7100000000000000000000000000000000000000000000000000000000600052604160045260246000fd5b6000601f19601f8301169050919050565b610edd81610d49565b8114610ee857600080fd5b50565b610ef481610d87565b8114610eff57600080fd5b5056fea264697066735822122044fe5086696b9f00e8aaf3d602de8853a831a3fae1567d825a535c549063294964736f6c63430008040033",
    "linkReferences": {},
    "deployedLinkReferences": {}
}